:100000000C9472000C948B000C948B000C948B005D
:100010000C948B000C948B000C948B000C948B0034
:100020000C948B000C948B000C948B000C948B0024
:100030000C948B000C948B000C948B000C948B0014
:100040000C948B000C948B000C948B000C948B0004
:100050000C948B000C948B000C948B000C948B00F4
:100060000C948B000C948B000C948B000C948B00E4
:100070000C948B000C948B000C948B000C948B00D4
:100080000C948B000C948B000C948B000C948B00C4
:100090000C948B000C948B000C948B000C948B00B4
:1000A0000C948B000C948B000C948B000C948B00A4
:1000B0000C948B000C948B000C948B000C948B0094
:1000C0000C948B000C948B000C948B000C948B0084
:1000D0000C948B000C948B000C948B000C948B0074
:1000E0000C948B0011241FBECFEFD1E2DEBFCDBF39
:1000F00000E00CBF12E0A0E0B2E0EEEDF2E000E0C4
:100100000BBF02C007900D92A833B107D9F70E9428
:100110001B010C946D010C940000E1E0F1E0808182
:10012000806280838081806180839D9AE2E0F1E03B
:1001300080818F7E8083A598089528E030E0E2E0FA
:10014000F1E00EC090819F7D9083908190619083BB
:1001500090819F7E9083215031092115310549F00E
:10016000982F91708595992369F39081906290837F
:10017000ECCF089590E101C0990F8A95EAF7892F95
:100180000E949D000895CF93DF93D62FC72F0E9422
:100190009D008D2F9C2F0E94BA00A59AA598DF91F3
:1001A000CF9108950F931F93CF93DF93C82FD92F2B
:1001B00000E010E09E01ADECBCEC0E945E019C01F1
:1001C000369527953695279536952795C901880F39
:1001D000991F880F991F820F931F880F991FFE0187
:1001E000E81BF90BEE0FFF1FE050FE4FB8018081B6
:1001F0000E94C3009E01ADECBCEC0E945E01EC01CC
:10020000D695C795D695C795D695C7958FE99FE0A2
:100210000197F1F700C000000F5F1F4F0430110578
:1002200049F660E070E08FEF0E94C300DF91CF914C
:100230001F910F9108950E948D0000E010E0C0E032
:10024000D0E00F2EF4E6FF2EF02DD12CE12CBB24B4
:10025000B394C12C0DC08FEF99EF20E081509040F6
:100260002040E1F700C00000799B02C0CD2DDE2DBB
:10027000F09EC001F19E900D11248D599F4F0E9458
:10028000D2007999E8CF9FEF29EF80E0915020408C
:100290008040E1F700C000007999EACF209741F74C
:1002A0000F5F1F4F9FEF29EF80E09150204080406B
:1002B000E1F700C00000CB2DDC2DDACFA29FB0010A
:1002C000B39FC001A39F700D811D1124911DB29F8A
:0E02D000700D811D1124911D0895F894FFCF2B
:1002DE0003009F0025000D009900490041001F00FA
:1002EE0001000900110001006300030061007100AC
:1002FE0091009F00E300C50031004900E10083003A
:08030E002500FD001D00100098
:00000001FF
