:100000000C9472000C9493000C9493000C94930045
:100010000C9493000C9493000C9493000C94930014
:100020000C9493000C9493000C9493000C94930004
:100030000C9493000C9493000C9493000C949300F4
:100040000C9493000C9493000C9493000C949300E4
:100050000C9493000C9493000C9493000C949300D4
:100060000C9493000C9493000C9493000C949300C4
:100070000C9493000C9493000C9493000C949300B4
:100080000C9493000C9493000C9493000C949300A4
:100090000C9493000C9493000C9493000C94930094
:1000A0000C9493000C9493000C9493000C94930084
:1000B0000C9493000C9493000C9493000C94930074
:1000C0000C9493000C9493000C9493000C94930064
:1000D0000C9493000C9493000C9493000C94930054
:1000E0000C94930011241FBECFEFD1E2DEBFCDBF31
:1000F00000E00CBF12E0A0E0B2E0E2EEFBE100E0C5
:100100000BBF02C007900D92A631B107D9F722E0CC
:10011000A6E1B2E001C01D92AE31B207E1F70E9444
:100120006E030C94EF0D0C940000CF93DF93CDB7CA
:10013000DEB780E390E0FC01208180E390E0206462
:10014000FC01208380E390E0FC01208180E390E0CB
:100150002068FC01208380E390E0FC01208180E3A3
:1001600090E02062FC0120830000DF91CF91089590
:10017000CF93DF9300D000D0CDB7DEB78D836E83F1
:1001800081E390E0FC01208181E390E02F77FC0186
:10019000208387E090E09A83898345C081E390E0E3
:1001A000FC01208181E390E02F7BFC01208381E32F
:1001B00090E0FC01208181E390E02F7DFC01208311
:1001C00081E390E0FC018081482F81E090E009808C
:1001D00002C0880F991F0A94E2F72E81222F30E087
:1001E0002C5F3F4F022E02C0959587950A94E2F747
:1001F00081709927009711F480E201C080E0282FD8
:10020000242B81E390E0FC01208381E390E0FC015A
:10021000208181E390E02064FC01208389819A8120
:1002200001979A83898389819A8199230CF0B6CFAB
:1002300087E090E09C838B833CC081E390E0FC01ED
:10024000208181E390E02F7BFC01208381E390E01B
:10025000FC01208181E390E02F7DFC01208381E37C
:1002600090E0FC018081282F8D81882F90E00B8009
:1002700002C0959587950A94E2F7880F991F829599
:100280009295907F9827807F98278072282B81E312
:1002900090E0FC01208381E390E0FC01208181E378
:1002A00090E02064FC0120838B819C8101979C83DA
:1002B0008B838B819C8199230CF0BFCF81E390E0ED
:1002C000FC01208181E390E02068FC012083000094
:1002D0000F900F900F900F900F900F90DF91CF9194
:1002E0000895CF93DF93CDB7DEB7A6970FB6F894F6
:1002F000DEBF0FBECDBF9A8B898B83E090E09A83DF
:100300008983C6C0E98149895A899A01ADECBCEC60
:100310000E94160C9C0136952795369527953695A3
:100320002795C901880F991F880F991F820F931F66
:10033000880F991F9A01281B390BC90180509E4FC5
:10034000DC018C916E2F0E94B80089899A899C01EA
:10035000ADECBCEC0E94160C96958795969587950A
:10036000969587959A8B898B80E090E0A0E8BFE313
:100370008B839C83AD83BE8320E030E04AE755E465
:100380006B817C818D819E810E94820D6F8B788F25
:10039000898F9A8F8F89988DA98DBA8D8F83988731
:1003A000A987BA8720E030E040E85FE36F81788575
:1003B00089859A850E94250C88232CF481E090E0A1
:1003C0009C878B8755C020E03FEF4FE757E46F8154
:1003D000788589859A850E947D0D8823D9F1D4F18D
:1003E00020E030E040E251E46B817C818D819E8190
:1003F0000E94820D6B8F7C8F8D8F9E8F8B8D9C8D3D
:10040000AD8DBE8D8B8B9C8BAD8BBE8B6B897C89B0
:100410008D899E890E949C0C6F8F78A389A39AA3D3
:10042000AF8DB8A1BC87AB8710C080E991E09E87F3
:100430008D878D859E850197F1F79E878D870000BA
:100440008B859C8501979C878B878B859C850097E6
:1004500061F719C06F81788589859A850E949C0C07
:100460006BA37CA38DA39EA38BA19CA19C878B8750
:100470008B859C85988B8F878F8598890197F1F75D
:10048000988B8F87000089819A8101979A8389834D
:1004900089819A8199230CF035CF60E080E00E9439
:1004A000B8000000A6960FB6F894DEBF0FBECDBF11
:1004B000DF91CF910895CF93DF930F920F92CDB735
:1004C000DEB71A821982809116029091170244E6D3
:1004D000489F9001499F300D1124C9010E9471016C
:1004E0000E94A502009789F089819A81009769F49A
:1004F00080911602909117020196909317028093B3
:10050000160281E090E09A83898300000F900F909B
:10051000DF91CF910895CF93DF93CDB7DEB787E01A
:1005200091E0FC01208187E091E02360FC012083C1
:1005300086E091E0FC01208186E091E02360FC01EF
:1005400020830000DF91CF910895CF93DF93CDB743
:10055000DEB786E091E0FC018081882F90E0817019
:100560009927009719F481E090E002C080E090E0C4
:10057000DF91CF910895CF93DF93CDB7DEB7A297E8
:100580000FB6F894DEBF0FBECDBF80911A029091D6
:100590001B02019690931B0280931A028FC080E089
:1005A00090E0A0E8BFE389839A83AB83BC8320E01B
:1005B00030E04AE755E469817A818B819C810E9411
:1005C000820D6B8B7C8B8D8B9E8B8B899C89AD89EF
:1005D000BE898D839E83AF83B88720E030E040E8FA
:1005E0005FE36D817E818F8198850E94250C882331
:1005F0002CF481E090E09A87898755C020E03FEF96
:100600004FE757E46D817E818F8198850E947D0D33
:100610008823D9F1D4F120E030E040E251E469814F
:100620007A818B819C810E94820D6F8B788F898F5C
:100630009A8F8F89988DA98DBA8D8F87988BA98B6A
:10064000BA8B6F85788989899A890E949C0C6B8FF7
:100650007C8F8D8F9E8FAB8DBC8DBA87A98710C084
:1006600080E991E09C878B878B859C850197F1F7CA
:100670009C878B87000089859A8501979A8789874F
:1006800089859A85009761F719C06D817E818F8178
:1006900098850E949C0C6F8F78A389A39AA38F8D55
:1006A00098A19A87898789859A859E878D878D8568
:1006B0009E850197F1F79E878D8700000E94A50215
:1006C000009709F06CCF81E090E0A2960FB6F89405
:1006D000DEBF0FBECDBFDF91CF910895CF93DF93E3
:1006E000CDB7DEB760970FB6F894DEBF0FBECDBFB3
:1006F0000E9495000E94940A0E94C0030E944A0B27
:1007000069877A878B879C8789859A85AB85BC8525
:1007100089839A83AB83BC830E94B00B6D877E87ED
:100720008F87988B8D859E85AF85B8898D839E83B5
:10073000AF83B8870E94EC032D813E814F8158859D
:1007400069817A818B819C810E947D0D882319F0BB
:1007500014F00E9470072D813E814F815885698178
:100760007A818B819C810E94250C882314F40E943D
:10077000F5080E94A502009709F20E945B02BECF15
:10078000CF93DF93CDB7DEB781E290E0FC0120810B
:1007900081E290E02260FC01208384E290E0FC0191
:1007A000208184E290E02260FC01208381E290E0DD
:1007B000FC01208181E290E02160FC01208384E241
:1007C00090E0FC01208184E290E02160FC01208324
:1007D0000000DF91CF910895CF93DF93CDB7DEB7BF
:1007E000C655D1090FB6F894DEBF0FBECDBF82E269
:1007F00090E0DC012C9182E290E02260FC012083F9
:1008000085E290E0DC012C9185E290E02260FC0121
:1008100020831A8219828EC1809113029091140252
:100820009C01990F440B550B2FA738AB49AB5AAB22
:100830006FA578A989A99AA90E94CD0C6F8F78A37A
:1008400089A39AA38F8D98A1A9A1BAA1898B9A8B0C
:10085000AB8BBC8B20E030E04AE755E469897A89AC
:100860008B899C890E94820D6BAB7CAB8DAB9EAB60
:100870002BA93CA94DA95EA92D8B3E8B4F8B588F80
:1008800020E030E040E85FE36D897E898F89988DB4
:100890000E94250C88232CF481E090E09A8F898FA8
:1008A00059C020E03FEF4FE757E46D897E898F897B
:1008B000988D0E947D0D8823D9F1D4F120E030E09D
:1008C00040E251E469897A898B899C890E94820D72
:1008D0006FAB78AF89AF9AAF8FA998ADA9ADBAAD1C
:1008E0008BA79CA7ADA7BEA76BA57CA58DA59EA534
:1008F0000E949C0C6BAF7CAF8DAF9EAFABADBCAD1F
:10090000BA8FA98F10C080E991E09C8F8B8F8B8D5F
:100910009C8D0197F1F79C8F8B8F0000898D9A8DAC
:1009200001979A8F898F898D9A8D009761F71DC0E5
:100930006D897E898F89988D0E949C0C23966CAF5F
:100940007DAF8EAF9FAF23972196EEADFFAD219780
:10095000FA8FE98F898D9A8D9E8F8D8F8D8D9E8DCB
:100960000197F1F79E8F8D8F000082E290E0DC010D
:100970002C9182E290E02160FC01208385E290E0EE
:10098000DC012C9185E290E02160FC0120838091C4
:100990001302909114029C01990F440B550B27965A
:1009A0002CAF3DAF4EAF5FAF279727966CAD7DADB7
:1009B0008EAD9FAD27970E94CD0C6BA37CA38DA31A
:1009C0009EA38BA19CA1ADA1BEA18B839C83AD8373
:1009D000BE8320E030E04AE755E46B817C818D8165
:1009E0009E810E94820D2B966CAF7DAF8EAF9FAF24
:1009F0002B972B962CAD3DAD4EAD5FAD2B972F8336
:100A0000388749875A8720E030E040E85FE36F810C
:100A1000788589859A850E94250C88232CF481E0AD
:100A200090E09C878B8762C020E03FEF4FE757E460
:100A30006F81788589859A850E947D0D882309F0CC
:100A40000CF442C020E030E040E251E46B817C8154
:100A50008D819E810E94820D2F966CAF7DAF8EAFEF
:100A60009FAF2F972F968CAD9DADAEADBFAD2F979D
:100A70008FA398A7A9A7BAA76FA178A589A59AA5BA
:100A80000E949C0C63966CAF7DAF8EAF9FAF639757
:100A90006196AEADBFAD6197BC87AB8710C080E9F2
:100AA00091E09E878D878D859E850197F1F79E87C2
:100AB0008D8700008B859C8501979C878B878B8514
:100AC0009C85009761F71DC06F81788589859A851F
:100AD0000E949C0C67966CAF7DAF8EAF9FAF6797FF
:100AE0006596EEADFFAD6597FC87EB878B859C85A2
:100AF000988B8F878F8598890197F1F7988B8F87CF
:100B0000000082E290E0DC012C9182E290E02E7FF6
:100B1000FC01208385E290E0DC012C9185E290E0ED
:100B20002E7FFC0120830E945B0289819A810196BD
:100B30009A83898389819A818F38F1E09F0709F030
:100B40000CF46ACE00000000CA5ADF4F0FB6F894CA
:100B5000DEBF0FBECDBFDF91CF910895CF93DF935E
:100B6000CDB7DEB7C655D1090FB6F894DEBF0FBEBC
:100B7000CDBF82E290E0DC012C9182E290E02D7FFB
:100B8000FC01208385E290E0DC012C9185E290E07D
:100B90002D7FFC0120831A8219828EC1809113025D
:100BA000909114029C01990F440B550B2FA738AB61
:100BB00049AB5AAB6FA578A989A99AA90E94CD0C17
:100BC0006F8F78A389A39AA38F8D98A1A9A1BAA1A9
:100BD000898B9A8BAB8BBC8B20E030E04AE755E4E5
:100BE00069897A898B899C890E94820D6BAB7CAB69
:100BF0008DAB9EAB2BA93CA94DA95EA92D8B3E8B3D
:100C00004F8B588F20E030E040E85FE36D897E89AC
:100C10008F89988D0E94250C88232CF481E090E028
:100C20009A8F898F59C020E03FEF4FE757E46D89D5
:100C30007E898F89988D0E947D0D8823D9F1D4F10A
:100C400020E030E040E251E469897A898B899C890F
:100C50000E94820D6FAB78AF89AF9AAF8FA998AD24
:100C6000A9ADBAAD8BA79CA7ADA7BEA76BA57CA568
:100C70008DA59EA50E949C0C6BAF7CAF8DAF9EAFE7
:100C8000ABADBCADBA8FA98F10C080E991E09C8F4D
:100C90008B8F8B8D9C8D0197F1F79C8F8B8F000034
:100CA000898D9A8D01979A8F898F898D9A8D00975A
:100CB00061F71DC06D897E898F89988D0E949C0C7B
:100CC00023966CAF7DAF8EAF9FAF23972196EEAD8D
:100CD000FFAD2197FA8FE98F898D9A8D9E8F8D8F29
:100CE0008D8D9E8D0197F1F79E8F8D8F000082E292
:100CF00090E0DC012C9182E290E02160FC012083F5
:100D000085E290E0DC012C9185E290E02160FC011D
:100D1000208380911302909114029C01990F440B3F
:100D2000550B27962CAF3DAF4EAF5FAF2797279659
:100D30006CAD7DAD8EAD9FAD27970E94CD0C6BA3A2
:100D40007CA38DA39EA38BA19CA1ADA1BEA18B83EF
:100D50009C83AD83BE8320E030E04AE755E46B819D
:100D60007C818D819E810E94820D2B966CAF7DAF20
:100D70008EAF9FAF2B972B962CAD3DAD4EAD5FAD9B
:100D80002B972F83388749875A8720E030E040E847
:100D90005FE36F81788589859A850E94250C882379
:100DA0002CF481E090E09C878B8762C020E03FEFCD
:100DB0004FE757E46F81788589859A850E947D0D7C
:100DC000882309F00CF442C020E030E040E251E416
:100DD0006B817C818D819E810E94820D2F966CAFEC
:100DE0007DAF8EAF9FAF2F972F968CAD9DADAEADE3
:100DF000BFAD2F978FA398A7A9A7BAA76FA178A572
:100E000089A59AA50E949C0C63966CAF7DAF8EAFAE
:100E10009FAF63976196AEADBFAD6197BC87AB875F
:100E200010C080E991E09E878D878D859E85019712
:100E3000F1F79E878D8700008B859C8501979C87A5
:100E40008B878B859C85009761F71DC06F817885A6
:100E500089859A850E949C0C67966CAF7DAF8EAF9A
:100E60009FAF67976596EEADFFAD6597FC87EB8703
:100E70008B859C85988B8F878F8598890197F1F753
:100E8000988B8F87000082E290E0DC012C9182E257
:100E900090E02E7FFC01208385E290E0DC012C9124
:100EA00085E290E02E7FFC0120830E945B02898115
:100EB0009A8101969A83898389819A818F38F1E09A
:100EC0009F0709F00CF46ACE00000000CA5ADF4FF9
:100ED0000FB6F894DEBF0FBECDBFDF91CF9108955E
:100EE000CF93DF93CDB7DEB7C654D1090FB6F894D0
:100EF000DEBF0FBECDBF82E290E0DC012C9182E22A
:100F000090E02D7FFC01208385E290E0DC012C91B4
:100F100085E290E02260FC0120831A82198252C18E
:100F200080E090E0A0E8BFE3898B9A8BAB8BBC8B11
:100F300020E030E04AE755E469897A898B899C8909
:100F40000E94820D6FA378A789A79AA78FA198A561
:100F5000A9A5BAA58D8B9E8BAF8BB88F20E030E012
:100F600040E85FE36D897E898F89988D0E94250C0A
:100F700088232CF481E090E09A8F898F55C020E07F
:100F80003FEF4FE757E46D897E898F89988D0E94E6
:100F90007D0D8823D9F1D4F120E030E040E251E426
:100FA00069897A898B899C890E94820D6BA77CA7AD
:100FB0008DA79EA78BA59CA5ADA5BEA58BA39CA325
:100FC000ADA3BEA36BA17CA18DA19EA10E949C0C90
:100FD0006FA778AB89AB9AABAFA5B8A9BA8FA98F29
:100FE00010C080E991E09C8F8B8F8B8D9C8D019739
:100FF000F1F79C8F8B8F0000898D9A8D01979A8FC6
:10100000898F898D9A8D009761F719C06D897E89C6
:101010008F89988D0E949C0C6BAB7CAB8DAB9EAB8B
:10102000EBA9FCA9FA8FE98F898D9A8D9E8F8D8F00
:101030008D8D9E8D0197F1F79E8F8D8F000082E23E
:1010400090E0DC012C9182E290E02160FC012083A1
:1010500085E290E0DC012C9185E290E02160FC01CA
:10106000208380E090E0A0E8BFE38B839C83AD8386
:10107000BE8320E030E04AE755E46B817C818D81BE
:101080009E810E94820D6FAB78AF89AF9AAF8FA916
:1010900098ADA9ADBAAD8F839887A987BA8720E0AC
:1010A00030E040E85FE36F81788589859A850E940A
:1010B000250C88232CF481E090E09C878B875EC010
:1010C00020E03FEF4FE757E46F81788589859A8567
:1010D0000E947D0D882309F00CF43EC020E030E032
:1010E00040E251E46B817C818D819E810E94820D62
:1010F0006BAF7CAF8DAF9EAF8BAD9CADADADBEADDC
:101100008F8F98A3A9A3BAA36F8D78A189A19AA163
:101110000E949C0C23966CAF7DAF8EAF9FAF239740
:101120002196AEADBFAD2197BC87AB8710C080E9DB
:1011300091E09E878D878D859E850197F1F79E872B
:101140008D8700008B859C8501979C878B878B857D
:101150009C85009761F71DC06F81788589859A8588
:101160000E949C0C27966CAF7DAF8EAF9FAF2797E8
:101170002596EEADFFAD2597FC87EB878B859C858B
:10118000988B8F878F8598890197F1F7988B8F8738
:10119000000082E290E0DC012C9182E290E02E7F60
:1011A000FC01208385E290E0DC012C9185E290E057
:1011B0002E7FFC0120830E945B0289819A81019627
:1011C0009A83898389819A81873C910509F00CF47F
:1011D000A7CE00000000CA5BDF4F0FB6F894DEBF59
:1011E0000FBECDBFDF91CF910895CF93DF93CDB7E1
:1011F000DEB7C654D1090FB6F894DEBF0FBECDBF1F
:1012000082E290E0DC012C9182E290E02260FC011D
:10121000208385E290E0DC012C9185E290E02D7F37
:10122000FC0120831A82198252C180E090E0A0E87C
:10123000BFE3898B9A8BAB8BBC8B20E030E04AE715
:1012400055E469897A898B899C890E94820D6FA3F4
:1012500078A789A79AA78FA198A5A9A5BAA58D8BCC
:101260009E8BAF8BB88F20E030E040E85FE36D8964
:101270007E898F89988D0E94250C88232CF481E02B
:1012800090E09A8F898F55C020E03FEF4FE757E4F9
:101290006D897E898F89988D0E947D0D8823D9F173
:1012A000D4F120E030E040E251E469897A898B8909
:1012B0009C890E94820D6BA77CA78DA79EA78BA5FA
:1012C0009CA5ADA5BEA58BA39CA3ADA3BEA36BA1FE
:1012D0007CA18DA19EA10E949C0C6FA778AB89ABCD
:1012E0009AABAFA5B8A9BA8FA98F10C080E991E0D9
:1012F0009C8F8B8F8B8D9C8D0197F1F79C8F8B8FA3
:101300000000898D9A8D01979A8F898F898D9A8D8A
:10131000009761F719C06D897E898F89988D0E9429
:101320009C0C6BAB7CAB8DAB9EABEBA9FCA9FA8F95
:10133000E98F898D9A8D9E8F8D8F8D8D9E8D0197D2
:10134000F1F79E8F8D8F000082E290E0DC012C91FE
:1013500082E290E02160FC01208385E290E0DC01E4
:101360002C9185E290E02160FC01208380E090E0F8
:10137000A0E8BFE38B839C83AD83BE8320E030E095
:101380004AE755E46B817C818D819E810E94820DAC
:101390006FAB78AF89AF9AAF8FA998ADA9ADBAAD51
:1013A0008F839887A987BA8720E030E040E85FE321
:1013B0006F81788589859A850E94250C88232CF475
:1013C00081E090E09C878B875EC020E03FEF4FE795
:1013D00057E46F81788589859A850E947D0D8823E1
:1013E00009F00CF43EC020E030E040E251E46B81B3
:1013F0007C818D819E810E94820D6BAF7CAF8DAF11
:101400009EAF8BAD9CADADADBEAD8F8F98A3A9A3A4
:10141000BAA36F8D78A189A19AA10E949C0C2396F2
:101420006CAF7DAF8EAF9FAF23972196AEADBFADB2
:101430002197BC87AB8710C080E991E09E878D879C
:101440008D859E850197F1F79E878D8700008B859E
:101450009C8501979C878B878B859C85009761F77E
:101460001DC06F81788589859A850E949C0C27967E
:101470006CAF7DAF8EAF9FAF27972596EEADFFADDA
:101480002597FC87EB878B859C85988B8F878F852D
:1014900098890197F1F7988B8F87000082E290E09E
:1014A000DC012C9182E290E02E7FFC01208385E21A
:1014B00090E0DC012C9185E290E02E7FFC012083FE
:1014C0000E945B0289819A8101969A83898389812E
:1014D0009A81873C910509F00CF4A7CE000000002A
:1014E000CA5BDF4F0FB6F894DEBF0FBECDBFDF91F2
:1014F000CF910895CF93DF93CDB7DEB782E290E02E
:10150000FC01208182E290E02E7FFC01208385E2B5
:1015100090E0FC01208185E290E02E7FFC01208399
:101520000000DF91CF910895CF93DF93CDB7DEB761
:101530000E94A00A0E94F50A0000DF91CF91089551
:10154000CF93DF93CDB7DEB78AE091E0FC01208135
:101550008AE091E02061FC01208380E291E0FC01BF
:10156000208180E291E02360FC01208381E291E010
:10157000FC01208181E291E02861FC01208380E26E
:1015800091E0FC01208180E291E02062FC01208357
:1015900081E291E0FC01208181E291E02360FC0185
:1015A000208388E291E028E93AE3FC01318320833B
:1015B0008AE291E023E030E0FC01318320838AE07D
:1015C00091E0FC0120818AE091E02D7FFC012083E5
:1015D00081E291E0FC01208181E291E02F7BFC011E
:1015E00020830000DF91CF910895CF93DF93CDB793
:1015F000DEB781E091E0FC01208181E091E0206193
:10160000FC01208380EA90E0FC01208180EA90E0E8
:101610002360FC01208381EA90E0FC01208181EAC3
:1016200090E02861FC01208380EA90E0FC012081A9
:1016300080EA90E02062FC01208381EA90E0FC01D6
:10164000208181EA90E02360FC01208388EA90E019
:1016500028E93AE3FC01318320838AEA90E023E021
:1016600030E0FC01318320838AE091E0FC0120819D
:101670008AE091E02E7FFC01208381EA90E0FC016A
:10168000208181EA90E02F7BFC0120830000DF9124
:10169000CF910895CF93DF93CDB7DEB764970FB6A0
:1016A000F894DEBF0FBECDBF86E291E0FC018081E1
:1016B00091819A83898389819A818632F2E09F079A
:1016C000A9F0A0F089819A818652924000249695D3
:1016D00087950794969587950794982F802D9295D6
:1016E00082958F7089279F70892702C080E090E0E3
:1016F0009C838B838B819C819C0140E050E02D87F3
:101700003E874F87588B6D857E858F8598890E948F
:10171000CB0C6D837E838F83988720E030E048E692
:1017200052E46D817E818F8198850E942A0C698B9D
:101730007A8B8B8B9C8B89899A89AB89BC898987A9
:101740009A87AB87BC8769857A858B859C856496EB
:101750000FB6F894DEBF0FBECDBFDF91CF910895D5
:10176000CF93DF93CDB7DEB764970FB6F894DEBFA3
:101770000FBECDBF86EA90E0FC01808191819A8303
:10178000898389819A818632F2E09F07A9F0A0F0CF
:1017900089819A8186529240002496958795079474
:1017A000969587950794982F802D929582958F70A6
:1017B00089279F70892702C080E090E09C838B83FB
:1017C0008B819C819C0140E050E02D873E874F87B4
:1017D000588B6D857E858F8598890E94CB0C6D8393
:1017E0007E838F83988720E030E048E652E46D8165
:1017F0007E818F8198850E942A0C698B7A8B8B8BD6
:101800009C8B89899A89AB89BC8989879A87AB87A0
:10181000BC8769857A858B859C8564960FB6F8941C
:10182000DEBF0FBECDBFDF91CF910895A29FB00163
:10183000B39FC001A39F700D811D1124911DB29F04
:10184000700D811D1124911D08950E94080D08F44A
:1018500081E008950E943E0C0C94430D0E943C0DC3
:1018600058F00E94350D40F029F45F3F29F00C94A8
:101870002C0D51110C94770D0C94320D0E94540DC7
:1018800068F39923B1F3552391F3951B550BBB27AF
:10189000AA2762177307840738F09F5F5F4F220FF4
:1018A000331F441FAA1FA9F335D00E2E3AF0E0E8EB
:1018B00032D091505040E695001CCAF72BD0FE2F35
:1018C00029D0660F771F881FBB1F261737074807C9
:1018D000AB07B0E809F0BB0B802DBF01FF27935881
:1018E0005F4F3AF09E3F510578F00C942C0D0C940C
:1018F000770D5F3FE4F3983ED4F38695779567952F
:10190000B795F7959F5FC9F7880F911D96958795B5
:1019100097F90895E1E0660F771F881FBB1F6217D4
:1019200073078407BA0720F0621B730B840BBA0B92
:10193000EE1F88F7E09508950E945C0D88F09F5790
:1019400098F0B92F9927B751B0F0E1F0660F771FE3
:10195000881F991F1AF0BA95C9F714C0B13091F0D9
:101960000E94760DB1E008950C94760D672F782FC4
:101970008827B85F39F0B93FCCF38695779567959E
:10198000B395D9F73EF490958095709561957F4F0A
:101990008F4F9F4F0895E89409C097FB3EF49095B0
:1019A0008095709561957F4F8F4F9F4F9923A9F038
:1019B000F92F96E9BB279395F695879577956795C7
:1019C000B795F111F8CFFAF4BB0F11F460FF1BC00B
:1019D0006F5F7F4F8F4F9F4F16C0882311F096E99E
:1019E00011C0772321F09EE8872F762F05C066234C
:1019F00071F096E8862F70E060E02AF09A95660F05
:101A0000771F881FDAF7880F9695879597F90895BD
:101A1000990F0008550FAA0BE0E8FEEF16161706FF
:101A2000E807F907C0F012161306E407F50798F067
:101A3000621B730B840B950B39F40A2661F0232B80
:101A4000242B252B21F408950A2609F4A140A695FC
:101A50008FEF811D811D089597F99F6780E870E0E1
:101A600060E008959FEF80EC089500240A94161614
:101A7000170618060906089500240A94121613067C
:101A8000140605060895092E0394000C11F488230A
:101A900052F0BB0F40F4BF2B11F460FF04C06F5F26
:101AA0007F4F8F4F9F4F089557FD9058440F551FFC
:101AB00059F05F3F71F04795880F97FB991F61F0D0
:101AC0009F3F79F087950895121613061406551F47
:101AD000F2CF4695F1DF08C0161617061806991FB3
:101AE000F1CF86957105610508940895E894BB27A8
:101AF00066277727CB0197F908950E94080D08F40F
:101B00008FEF08950E94950D0C94430D0E94350DA2
:101B100038F00E943C0D20F0952311F00C942C0D10
:101B20000C94320D11240C94770D0E94540D70F317
:101B3000959FC1F3950F50E0551F629FF001729F72
:101B4000BB27F00DB11D639FAA27F00DB11DAA1F81
:101B5000649F6627B00DA11D661F829F2227B00DCE
:101B6000A11D621F739FB00DA11D621F839FA00D59
:101B7000611D221F749F3327A00D611D231F849FA9
:101B8000600D211D822F762F6A2F11249F57504000
:101B90009AF0F1F088234AF0EE0FFF1FBB1F661F7B
:101BA000771F881F91505040A9F79E3F510580F044
:101BB0000C942C0D0C94770D5F3FE4F3983ED4F316
:101BC000869577956795B795F795E7959F5FC1F7E8
:101BD000FE2B880F911D9695879597F90895F89497
:021BE000FFCF35
:101BE2003F065B4F666D7D077F6F3F777C395E797D
:061BF2007101000100007A
:00000001FF
