:100000000C9472000C9486000C9486000C9486006C
:100010000C9486000C9486000C9486000C94860048
:100020000C9486000C9486000C9486000C94860038
:100030000C9486000C9486000C9486000C94860028
:100040000C9486000C9486000C9486000C94860018
:100050000C9486000C9486000C9486000C94860008
:100060000C9486000C9486000C9486000C948600F8
:100070000C9486000C9486000C9486000C948600E8
:100080000C9486000C9486000C9486000C948600D8
:100090000C9486000C9486000C9486000C948600C8
:1000A0000C9486000C9486000C9486000C948600B8
:1000B0000C9486000C9486000C9486000C948600A8
:1000C0000C9486000C9486000C9486000C94860098
:1000D0000C9486000C9486000C9486000C94860088
:1000E0000C94860011241FBECFEFD1E2DEBFCDBF3E
:1000F00000E00CBF22E0A0E0B2E001C01D92A230FF
:10010000B207E1F70E94D2000C94E0040C940000C6
:10011000CF93DF93CDB7DEB780E390E0FC01208181
:1001200080E390E02360FC0120838FE290E0FC01FB
:1001300020818FE290E02360FC0120830000DF91AA
:10014000CF910895CF93DF93CDB7DEB78FE290E0E4
:10015000FC018081882319F481E090E00BC08FE2DC
:1001600090E0FC018081882319F481E090E002C0D6
:1001700080E090E0DF91CF910895CF93DF93CDB7EA
:10018000DEB70E94A200009749F080910002909192
:100190000102019690930102809300020000DF911A
:1001A000CF9108950F931F93CF93DF93CDB7DEB711
:1001B000A8970FB6F894DEBF0FBECDBF0E942802ED
:1001C0000E94DE0269877A878B879C8789859A855A
:1001D000AB85BC8589839A83AB83BC830E9444032F
:1001E0006D877E878F87988B8D859E85AF85B88933
:1001F0008D839E83AF83B88704C00E94FC010E9458
:100200005E0169817A818B819C810E941C04698BCB
:100210007A8B8B8B9C8B09891A896D817E818F816A
:1002200098850E941C046D8B7E8B8F8B988F8D8997
:100230009E890817190709F304C00E94FC010E9457
:10024000B60169817A818B819C810E941C04698F2F
:100250007A8F8B8F9C8F098D1A8D6D817E818F8116
:1002600098850E941C046D8F7E8F8F8F98A38D8D33
:100270009E8D0817190709F004F704C00E94FC01BD
:100280000E94D90169817A818B819C810E941C0422
:1002900069A37AA38BA39CA309A11AA16D817E8176
:1002A0008F8198850E941C046DA37EA38FA398A7BD
:1002B0008DA19EA1081719070CF382CFCF93DF936E
:1002C000CDB7DEB781E290E0FC01208181E290E0D1
:1002D0002D7FFC01208384E290E0FC01208184E2F8
:1002E00090E02D7FFC01208381E290E0FC012081E1
:1002F00081E290E02160FC01208381E290E0FC013A
:10030000208181E290E02860FC0120830000DF91E1
:10031000CF910895CF93DF93CDB7DEB781E290E020
:10032000FC01208181E290E02E7FFC01208384E2A9
:1003300090E0FC01208184E290E02E7FFC0120838C
:1003400081E290E0FC01208181E290E02A60FC01E2
:10035000208384E290E0FC01208184E290E02A6026
:10036000FC0120830000DF91CF910895CF93DF93AC
:10037000CDB7DEB781E290E0FC01208181E290E020
:100380002E7FFC01208381E290E0FC01208181E24C
:1003900090E02160FC01208381E290E0FC0120815B
:1003A00081E290E02860FC0120830000DF91CF9182
:1003B0000895CF93DF93CDB7DEB781E290E0FC01E3
:1003C000208181E290E02E7FFC01208381E290E099
:1003D000FC01208181E290E02160FC01208381E228
:1003E00090E0FC01208181E290E02860FC01208304
:1003F0000000DF91CF910895CF93DF93CDB7DEB7A3
:1004000081E290E0FC01208181E290E02E7FFC01FE
:10041000208384E290E0FC01208184E290E02E7F42
:10042000FC01208381E290E0FC01208181E290E0E8
:100430002D7FFC01208384E290E0FC01208184E296
:1004400090E02D7FFC0120830000DF91CF91089583
:10045000CF93DF93CDB7DEB70E9434020E948902AA
:100460000000DF91CF910895CF93DF93CDB7DEB732
:100470008AE091E0FC0120818AE091E02061FC01AA
:10048000208380E291E0FC01208180E291E0236002
:10049000FC01208381E291E0FC01208181E291E076
:1004A0002861FC01208380E291E0FC01208180E250
:1004B00091E02062FC01208381E291E0FC01208137
:1004C00081E291E02360FC01208388E291E028E949
:1004D0003AE3FC01318320838AE291E023E030E0BB
:1004E000FC01318320838AE091E0FC0120818AE0D5
:1004F00091E02D7FFC01208381E291E0FC012081CD
:1005000081E291E02F7BFC0120830000DF91CF91FD
:100510000895CF93DF93CDB7DEB781E091E0FC0182
:10052000208181E091E02061FC01208380EA90E05D
:10053000FC01208180EA90E02360FC01208381EAB5
:1005400090E0FC01208181EA90E02861FC01208399
:1005500080EA90E0FC01208180EA90E02062FC01CA
:10056000208381EA90E0FC01208181EA90E0236011
:10057000FC01208388EA90E028E93AE3FC0131831A
:1005800020838AEA90E023E030E0FC01318320837D
:100590008AE091E0FC0120818AE091E02E7FFC015D
:1005A000208381EA90E0FC01208181EA90E02F7BAA
:1005B000FC0120830000DF91CF910895CF93DF935A
:1005C000CDB7DEB764970FB6F894DEBF0FBECDBFD0
:1005D00086E291E0FC01808191819A8389838981FF
:1005E0009A818632F2E09F07A9F0A0F089819A8172
:1005F0008652924000249695879507949695879504
:100600000794982F802D929582958F7089279F70DF
:10061000892702C080E090E09C838B838B819C8142
:100620009C0140E050E02D873E874F87588B6D85B9
:100630007E858F8598890E9452046D837E838F8387
:10064000988720E030E048E652E46D817E818F811A
:1006500098850E94AA03698B7A8B8B8B9C8B8989E6
:100660009A89AB89BC8989879A87AB87BC8769855A
:100670007A858B859C8564960FB6F894DEBF0FBE95
:10068000CDBFDF91CF910895CF93DF93CDB7DEB784
:1006900064970FB6F894DEBF0FBECDBF86E291E03F
:1006A000FC01808191819A83898389819A81863234
:1006B000F2E09F07A9F0A0F089819A8186529240CA
:1006C0000024969587950794969587950794982F7B
:1006D000802D929582958F7089279F70892702C0FF
:1006E00080E090E09C838B838B819C819C0140E027
:1006F00050E02D873E874F87588B6D857E858F858F
:1007000098890E9452046D837E838F83988720E0AE
:1007100030E048E652E46D817E818F8198850E94A9
:10072000AA03698B7A8B8B8B9C8B89899A89AB897D
:10073000BC8989879A87AB87BC8769857A858B85D1
:100740009C8564960FB6F894DEBF0FBECDBFDF91D7
:10075000CF9108950E94BE030C94A6040E949F04AA
:1007600058F00E94980440F029F45F3F29F00C945F
:100770008F0451110C94DA040C9495040E94B70470
:1007800068F39923B1F3552391F3951B550BBB27C0
:10079000AA2762177307840738F09F5F5F4F220F05
:1007A000331F441FAA1FA9F335D00E2E3AF0E0E8FC
:1007B00032D091505040E695001CCAF72BD0FE2F46
:1007C00029D0660F771F881FBB1F261737074807DA
:1007D000AB07B0E809F0BB0B802DBF01FF27935892
:1007E0005F4F3AF09E3F510578F00C948F040C94C3
:1007F000DA045F3FE4F3983ED4F3869577956795E6
:10080000B795F7959F5FC9F7880F911D96958795C6
:1008100097F90895E1E0660F771F881FBB1F6217E5
:1008200073078407BA0720F0621B730B840BBA0BA3
:10083000EE1F88F7E09508950E9423046894B11193
:100840000C94DA0408950E94BF0488F09F5798F032
:10085000B92F9927B751B0F0E1F0660F771F881FC5
:10086000991F1AF0BA95C9F714C0B13091F00E94DF
:10087000D904B1E008950C94D904672F782F882704
:10088000B85F39F0B93FCCF3869577956795B39506
:10089000D9F73EF490958095709561957F4F8F4F75
:1008A0009F4F0895E89409C097FB3EF4909580957A
:1008B000709561957F4F8F4F9F4F9923A9F0F92F26
:1008C00096E9BB279395F695879577956795B795A4
:1008D000F111F8CFFAF4BB0F11F460FF1BC06F5F8A
:1008E0007F4F8F4F9F4F16C0882311F096E911C09C
:1008F000772321F09EE8872F762F05C0662371F0BD
:1009000096E8862F70E060E02AF09A95660F771FD0
:10091000881FDAF7880F9695879597F9089597F9C4
:100920009F6780E870E060E008959FEF80EC089595
:1009300000240A94161617061806090608950024BE
:100940000A9412161306140605060895092E039438
:10095000000C11F4882352F0BB0F40F4BF2B11F4AC
:1009600060FF04C06F5F7F4F8F4F9F4F089557FD0B
:100970009058440F551F59F05F3F71F04795880F0D
:1009800097FB991F61F09F3F79F0879508951216A4
:1009900013061406551FF2CF4695F1DF08C0161650
:1009A00017061806991FF1CF869571056105089401
:1009B0000895E894BB2766277727CB0197F9089518
:0409C000F894FFCFD9
:00000001FF
